:1078000033C0000039C0000037C0000035C00000A0
:1078100033C0000031C000002FC000002DC00000A8
:107820002BC0000029C0000027C0000025C00000B8
:1078300023C0000021C000001FC000001DC00000C8
:107840001BC0000019C0000017C0000015C00000D8
:1078500013C0000011C000000FC000000DC00000E8
:107860000BC0000009C0000011241FBECFEFD8E0FC
:10787000DEBFCDBF70D28EC3C3CFCF93DF93DB010A
:107880000097B1F4FA011182108213962C9113978C
:1078900030E0318320832CE02C9324E911962C9343
:1078A000119712961C9212972CE313962C93139710
:1078B00023E0FC0120935700E89507B600FCFDCFBC
:1078C00040E050E061E07C911296FA01E80FF91F68
:1078D000ED012197288130E0322F2227270F311D1B
:1078E000090160935700E89511244E5F5F4F4038BF
:1078F000510549F725E0FC0120935700E89507B6AC
:1079000000FCFDCF81E180935700E895DF91CF9196
:1079100008951F93CF93DF931F92CDB7DEB7182F33
:1079200080EA9983F4D09981892F13D1812F11D1C5
:107930000ED281EAECD00F90DF91CF911F911AC146
:107940000F931F93CF93DF938C01E3DFC82FD0E019
:10795000DC2FCC27C8010196DCDF9E01282BC90152
:10796000DF91CF911F910F9108953F924F925F92B7
:107970006F927F928F929F92AF92BF92CF92DF923F
:10798000EF92FF920F931F93CF93DF93CDB7DEB7A4
:10799000D4500FB6F894DEBF0FBECDBF80E290E0AA
:1079A000CFDF8C01FE01319680E090E0DC015F01C9
:1079B000AC01BD0128E040FD09C030E2C32E33E830
:1079C000D32E38EBE32E3DEEF32E03C0C12CD12C89
:1079D000760176956795579547954C255D256E25DB
:1079E0007F25215041F77095419351936193719395
:1079F0000196A11DB11D811521E09207A105B105D8
:107A0000B9F6C12CD12C7601412C512C48018FEFB5
:107A1000881A980A380191E0691A7108332433945E
:107A200048145904E0F540165106C8F5C201829683
:107A300087DF4614570409F488279C25CD2CDE2CBB
:107A4000EF2CFF24F50124E0929FE00DF11D11249D
:107A50004081518162817381C426D526E626F726AE
:107A60008C25CD2CDE2CEF2CFF24F50194E0899F92
:107A7000E00DF11D112480819181A281B381C8267E
:107A8000D926EA26FB26C2018F779927892B19F47C
:107A900085B1832585B922E0420E511CC1CF8CE10E
:107AA00090E04EDFAC0160E070E05A019924882438
:107AB0008EE190E045DF8C0120E030E0B501A401CB
:107AC000402B512B622B732B81E0C416D506E606A2
:107AD000F70609F080E0DC5F0FB6F894DEBF0FBE5A
:107AE000CDBFDF91CF911F910F91FF90EF90DF906D
:107AF000CF90BF90AF909F908F907F906F905F904E
:107B00004F903F90089580E28093B80008951092BE
:107B1000BC0094EA9093BC009091BC0097FFFCCF0E
:107B20009091B900987F983011F081E0089580938A
:107B3000BB0084E88093BC008091BC0087FFFCCF31
:107B40008091B900887F883111F0803471F780E02E
:107B500008958093BB0084E88093BC008091BC00B2
:107B600087FFFCCF9091B900987F81E0983209F4AB
:107B700080E0089584EC8093BC008091BC0087FF76
:107B8000FCCF8091BB00089584E88093BC00809175
:107B9000BC0087FFFCCF8091BB000895CF92DF929D
:107BA000EF92FF921F93CF93DF9300D0CDB7DEB754
:107BB0007A0169837A83ABDF182F69817A81811119
:107BC0000CC06B01EC0CFD1CCE14DF0441F0F6017F
:107BD00081916F01BEDF8823B9F311E003C084E90E
:107BE0008093BC00812F0F900F90DF91CF911F9158
:107BF000FF90EF90DF90CF900895AF92BF92CF9219
:107C0000DF92FF920F931F93CF93DF936B018A0153
:107C100081607DDFF82E811116C05601E8012197A1
:107C2000C5018C199D098C179D0728F4A3DFF50168
:107C300081935F01F5CFCC0DDD1DA6DF888384E93C
:107C40008093BC0002C0FF24F3948F2DDF91CF916D
:107C50001F910F91FF90DF90CF90BF90AF9008954C
:107C6000AF92BF92DF92EF92FF920F931F93CF9349
:107C7000DF931F92CDB7DEB7D42E052F790169832C
:107C800046DF182F6981882311F011E013C0862F79
:107C900060DFAD2CB02EEA0CFB1CAE14BF0439F033
:107CA000F50181915F0155DF8823B9F3EECF84E9B7
:107CB0008093BC00812F0F90DF91CF911F910F9186
:107CC000FF90EF90DF90BF90AF900895AF92BF927A
:107CD000CF92DF92FF920F931F93CF93DF931F9268
:107CE000CDB7DEB7F82E6A018901698310DF69819B
:107CF000882319F0FF24F3941EC0862F2ADF8F2DCE
:107D0000816005DFF82E8111F5CF56010150110970
:107D1000C5018C199D098017910728F42BDFF50107
:107D200081935F01F5CFC00ED11E2EDFF601808357
:107D300084E98093BC008F2D0F90DF91CF911F912C
:107D40000F91FF90DF90CF90BF90AF90089584E99E
:107D50008093BC000895CF93DF93CDB7DEB7C258B0
:107D6000D1090FB6F894DEBF0FBECDBFA89514BEE3
:107D70008091600088618093600010926000F894A8
:107D8000C2DE289A81E084B9CF57DF4F198218826A
:107D9000C158D04086EF93E0E7D0C82ED12CE12C1B
:107DA000F12CFC2CEE24DD24CC2487EF93E0DCD0F6
:107DB000E82A88EF93E0D8D0B82E89EF93E0D4D0AA
:107DC000C82ADB2807B600FCFDCF84E190E0B8DDCF
:107DD0002C01612C712C52019924882486E190E0B9
:107DE000AFDD2C01612C712C482859286A287B288A
:107DF0002FEFC216D206E206F206C9F04C145D045B
:107E00006E047F04A1F484E290E09ADD092F10E073
:107E1000082BCF57DF4F19830883C158D040CF5765
:107E2000DF4FE881F981C158D0400995FFCF9DDD32
:107E3000882349F3E0E0F8E783E0E058F109809314
:107E40005700E89507B600FCFDCF3097B1F7A8952D
:107E500080E290E075DD5C0100E010E0812CCE0155
:107E600001967C01992493940A151B0540F568013D
:107E7000E894C7F8DD240115110581F0C114D1047F
:107E800069F4AE014F575F4FB70120E8829EC001F1
:107E90001124F3DC85B1892585B98394C8018296C4
:107EA0004FDDF701EC0DFD1D9083F8013196EF7762
:107EB000FF27EE0DFF1D80830E5F1F4FD5CF282DAE
:107EC00030E0C90101969695982F88279795879558
:107ED000B50136D0F701E81BF90BE058FF4F4FEF23
:107EE000CF018E199F098038910510F44193F8CF86
:107EF000AE014F575F4FB701C9019695982F88275C
:107F000097958795BADC289A672D77278827992730
:107F100086EF93E031D0B3018827992787EF93E06C
:107F20002BD09927872D762D652D88EF93E024D0CF
:107F3000642D89EF93E020D007B600FCFDCF6FCF12
:107F4000AA1BBB1B51E107C0AA1FBB1FA617B7077F
:107F500010F0A61BB70B881F991F5A95A9F780959B
:107F60009095BC01CD010895F999FECF92BD81BDD8
:107F7000F89A992780B50895262FF999FECF1FBA50
:107F800092BD81BD20BD0FB6F894FA9AF99A0FBE42
:087F900001960895F894FFCF5B
:040000030000780081
:00000001FF
