:100000000C9411030C9439030C9439030C94581379
:100010000C9458130C9458130C9439030C94291114
:100020000C9439030C9439030C9439030C94390360
:100030000C9439030C9431130C9439030C94390348
:100040000C94BF170C9439030C94D1110C94AB1180
:100050000C9439030C9439030C9439030C94390330
:100060000C9403120C9439035374617274696E67B3
:1000700021004F4B00496E697469616C697A696E41
:1000800067204D6F646275732E2E20003000496E1C
:100090007465726E616C204572726F7200456E6499
:1000A000696E6720436865636B696E67205374618E
:1000B0007465204D616368696E6520284F4B290087
:1000C000436C6F73696E672056616C766500456E90
:1000D00064696E6720436865636B696E672053745B
:1000E000617465204D616368696E65202866616989
:1000F0006C292C2069735369676E616C4F70656E53
:100100004F6E3A2000456E64696E672043686563F0
:100110006B696E67205374617465204D6163686913
:100120006E6520286661696C292C206D6F746F7272
:1001300053746174653A204D4F544F525F46415598
:100140004C545900456E64696E6720436865636B63
:10015000696E67205374617465204D616368696ED0
:100160006520286661696C292C20756E616E737735
:10017000657265643A2000456E64696E6720436865
:1001800065636B696E67205374617465204D6163AC
:1001900068696E6520284F4B29002C2069735374C1
:1001A0006172746572436F6E746163744F6E3A204E
:1001B00000456E64696E6720436865636B696E67AE
:1001C000205374617465204D616368696E652028F1
:1001D0006661696C292C20697352756E6E696E6751
:1001E0003A20004F70656E696E672056616C7665C7
:1001F00000456E64696E6720436865636B696E676E
:10020000205374617465204D616368696E652028B0
:100210006661696C292C2069735369676E616C4350
:100220006C6F7365644F6E3A2000456E64696E674B
:1002300020436865636B696E672053746174652041
:100240004D616368696E6520286661696C292C20A0
:1002500069734F70656E3A20005374617274696EF1
:10026000672073656C662D636865636B696E6720D4
:100270007374617465206D616368696E6500657291
:10028000726F722064652076616C76756C612C20CB
:1002900061207175656461646F2073656D692D619E
:1002A000626965727461006572726F7220646520A4
:1002B00076616C76756C612C20666565646261633D
:1002C0006B207065726469646F006572726F722072
:1002D000646520666565646261636B2076616C7637
:1002E00065006572726F722064652076616C767548
:1002F0006C612C2061207175656461646F20736589
:100300006D692D61626965727461006572726F72E8
:100310002064652076616C76756C612C206665655D
:10032000646261636B207065726469646F006572FA
:10033000726F722064652076616C76756C612C201A
:100340006E6F206C6F6772612061627269720073F8
:10035000696E206572726F722076616C76756C6161
:10036000006572726F722064652066656564626103
:10037000636B206D6F746F72006572726F722064B0
:1003800065206D6F746F722C206E6F2066756E63C2
:10039000696F6E61006572726F72206465206D6FA7
:1003A000746F722C206E6F2066756E63696F6E615C
:1003B000002500252C204C6576656C285332293A9F
:1003C00020004C6576656C285331293A20002C209A
:1003D000535245473A203062002C20556E6978749C
:1003E000696D653A2000557074696D653A20004565
:1003F0006D657267656E63792073746F70207265C6
:100400006D6F7665642C2052657374617274206D13
:100410006F746F72206F6B0053746F7070696E67CA
:1004200020616C61726D2062656570696E67005352
:1004300074617274696E6720616C61726D206265AF
:100440006570696E67005265626F6F74696E672EC2
:100450002E20493243005265626F6F74696E672EB9
:100460002E00494420646573636F6E6F6369646135
:100470002C2043657272616E646F2076616C7675B4
:100480006C61005374617274204A6F62004365723C
:1004900072616E646F2076616C76756C6100537466
:1004A000617274204A6F620041627269656E646FA6
:1004B0002076616C76756C61005374617274204AA9
:1004C0006F6200756E74696C3A2000546F3A2000B8
:1004D00046726F6D3A20005374617274696E6720C2
:1004E0004A6F620043657272616E646F2076616C60
:1004F00076756C61004D616E74656E206573746114
:10050000646F206365727261646F004D616E746523
:100510006E2065737461646F206162696572746FC7
:1005200000656E64204A6F620046696E697368698F
:100530006E67204A6F6200204F4B002053746F702B
:1005400070696E67206D6F746F722E2E005061752A
:1005500073696E67204A6F622E2E006E6F2065737E
:1005600020706F7369626C652C207469706F2069EC
:100570006E69636961646F720076616C7665206391
:100580006F6E74726F6C2066726F6D20636F696C32
:1005900073206E6F7420616C6C6F776564006D6F93
:1005A000746F7220636F6E74726F6C2066726F6D01
:1005B00020636F696C73206E6F7420616C6C6F7751
:1005C00065640002000000002300260029000000EE
:1005D0000000250028002B00040404040404040483
:1005E00002020202020203030303030301020408DE
:1005F000102040800102040810200102040810208D
:1006000000000000240027002A000000000800026B
:100610000100000304070000000000000000822524
:10062000662511241FBECFEFD8E0DEBFCDBF11E09D
:10063000A0E0B1E0E2E9FBE502C005900D92AC3F1D
:10064000B107D9F726E0ACEFB1E001C01D92AF3899
:10065000B207E1F713E0C0E1D3E004C02197FE0147
:100660000E94FE2ACF30D107C9F70E944E180C9481
:10067000BC2D0C9400000F931F93282F22952F70F0
:1006800090E0809590958F70992730E0E0918206F8
:10069000F0918306220F331FE20FF31F6623A1F0B0
:1006A00041E050E060E070E08A019B0104C0000F6F
:1006B000111F221F331F8A95D2F7D901C80120814B
:1006C0003181822B932B15C041E050E060E070E057
:1006D0008A019B0104C0000F111F221F331F8A953E
:1006E000D2F7D901C801809590952081318182236C
:1006F0009323918380831F910F910895FC0111A290
:1007000012A213A214A21182108280E895E2A0E046
:10071000B0E0828F938FA48FB58F64E670E074830E
:10072000638341E050E05683458324EF31E0308716
:10073000278388EA96E19287818774876387568743
:100740004587308B2787928B818B81E0838B148A3E
:10075000858B81E090E0A0E0B0E0868B978BA08F46
:10076000B18F8EEF868F0895CF92DF92EF92FF9236
:10077000CF93DF936B017C01EA010E94B3176C15E4
:100780007D058E059F05A8F06091DE057091DF055F
:10079000C60ED71E0E94B3179601261B370BB90150
:1007A0001216130634F4072E000C880B990B0E94C6
:1007B0007917CE01DF91CF91FF90EF90DF90CF902E
:1007C00008952F923F924F925F926F927F928F92F5
:1007D0009F92AF92BF92CF92DF92EF92FF920F93D0
:1007E0001F93CF93DF93CDB7DEB762970FB6F89420
:1007F000DEBF0FBECDBF89837E836D8358874F8355
:100800000E94B31769877A878B879C870D811E8129
:100810000E31110520F042E050E00E94B40319812E
:10082000163019F0103109F059C228852F933F81F5
:100830003F9384EA91E09F938F9381E992E09F93A5
:100840008F930E94092B81E992E00E9486150F90F8
:100850000F900F900F900F900F904D805E805E86EE
:100860004D86212C312CEAE0CE2EDD24D3946F80EE
:1008700078842614370409F431C28D819E81820D5B
:10088000931D7C01EE0CFF1CA0918006B0918106A7
:10089000AE0DBF1D8091F204863069F4211431043D
:1008A00011F00E94042B8091F5049091F604982792
:1008B000892798270DC08031A1F7F101EE0FFF1FA6
:1008C000E652FB4F868D90E0982F8827278D822B4C
:1008D0008D939C939F938F937E847F920D850F932E
:1008E0002EEA31E03F932F93E1E9F2E0FF93EF939B
:1008F0000E94092B81E992E00E9486150FB6F894B8
:10090000DEBF0FBECDBF8D859E850497039718F47B
:10091000D0921E06C6C10D851E850230110531F527
:10092000E0918006F0918106EE0DFF1D808191819E
:10093000A0E0B0E0DC0199278827F89440912C06CC
:1009400050912D0660912E0670912F06662777270D
:10095000842B952BA62BB72B80932C0690932D06DA
:10096000A0932E06B0932F0678949BC10D851E850B
:100970000330110519F5F89480912C0690912D06FD
:10098000A0912E06B0912F0688279927E091800626
:10099000F0918106EE0DFF1D4081518160E070E015
:1009A000842B952BA62BB72B80932C0690932D068A
:1009B000A0932E06B0932F06789490C10D851E85C6
:1009C00004311105C1F4E0918006F0918106EE0D2D
:1009D000FF1D80819181A0E0B0E0DC01992788278C
:1009E00040918702509188026091890270918A0239
:1009F0006627772719C00D851E850531110509F574
:100A000040918702509188026091890270918A0218
:100A100044275527E0918006F0918106EE0DFF1DD9
:100A200080819181A0E0B0E0842B952BA62BB72B81
:100A30008093870290938802A0938902B0938A02E0
:100A400030C10D851E850631110559F4E0918006EF
:100A5000F091810684A595A59093900280938F02D2
:100A600020C10D851E850731110509F0AAC04091EE
:100A70008702509188026091890270918A02E09108
:100A80008006F091810686A597A54A015B01880E34
:100A9000991EA11CB11C80928B0290928C02A09294
:100AA0008D02B0928E02A091900290918F0280915F
:100AB0009503853009F47EC0882309F461C08091D4
:100AC0009603C89EF0011124EF59FC4F44805580D5
:100AD0006680778049825A826B827C822091AA0349
:100AE0003091AB032901330F660877089301820127
:100AF000040F151F261F371F0F87188B298B3A8B62
:100B00000091AC031091AD03012E000C220B330BAE
:100B100049805A806B807C80040D151D261D371D71
:100B20004F84588869887A88041515052605370585
:100B300048F009811A812B813C810417150726078B
:100B40003707C0F18F5F80939603853010F01092C5
:100B50009603E0919603CE9EF0011124EF59FC4FCD
:100B6000408351836283738384829582A682B78295
:100B70009087A187809195038F5F809395031AC01A
:100B8000109296031092970340936103509362036F
:100B9000609363037093640380926503909266038D
:100BA000A0926703B092680390936903A0936A03CD
:100BB000D0929503E7E8F2E04C2C11924A94E9F7C1
:100BC00070C00D851E850A31110521F5E091800662
:100BD000F0918106EE0DFF1D80819181A0E0B0E0D3
:100BE000DC0199278827409183025091840260910B
:100BF00085027091860266277727842B952BA62B7A
:100C0000B72B8093830290938402A0938502B093C4
:100C1000860247C00D851E850B31110509F041C0C4
:100C20008090830290908402A0908502B09086020A
:100C300088249924E0918006F0918106EE0DFF1D35
:100C400080819181A0E0B0E0882A992AAA2ABB2A53
:100C50008092830290928402A0928502B0928602D2
:100C60008091930390919403029701F5E091A6037C
:100C7000F091A703309769F08091A0039091A103B0
:100C8000A091A203B091A303892B8A2B8B2B09F48B
:100C900009958092A0039092A103A092A203B09222
:100CA000A3038D859E854497049728F08D859E85A6
:100CB0004A97029748F48091800690918106FC0142
:100CC000EE0DFF1D118210821FEF211A310A0D85D2
:100CD0001E850F5F1F4F1E870D87C9CD40E050E076
:100CE00069857A858B859C850E94B40362960FB6D0
:100CF000F894DEBF0FBECDBFDF91CF911F910F9152
:100D0000FF90EF90DF90CF90BF90AF909F908F902B
:100D10007F906F905F904F903F902F9008954F92EB
:100D20005F926F927F928F929F92AF92BF92CF927B
:100D3000DF92EF92FF920F931F93CF93DF93182FC1
:100D40007B016A010E94B3172B013C018EE1E8167A
:100D5000F10408F08DC096E0E916F10408F08AC0AD
:100D6000133019F088EB91E002C089EA91E09F937B
:100D70008F93DF92CF928EEB91E09F938F9381E9D7
:100D800092E09F938F930E94092B81E992E00E9449
:100D900086158DB79EB708960FB6F8949EBF0FBE06
:100DA0008DBF133029F4C0918006D091810606C012
:100DB000143021F4C0917E06D0917F06C701880FC0
:100DC000991FC80FD91F00E010E066ECA62E61E065
:100DD000B62E71E9872E72E0972E0C151D0551F184
:100DE000288139812296C801880F991F86529B4F0E
:100DF000FC01E65AFF4F3083319620833F932F93B7
:100E0000C8018E0D9F1D9F938F93BF92AF929F92AB
:100E10008F920E94092B81E992E00E9486150F5F54
:100E20001F4F8DB79EB708960FB6F8949EBF0FBEA2
:100E30008DBFD3CF80911C06811103C081E08093C8
:100E40001C0640E050E0C301B2010E94B403DF91F0
:100E5000CF911F910F91FF90EF90DF90CF90BF90B7
:100E6000AF909F908F907F906F905F904F9008957C
:100E700013E001C014E042E050E0C301B2010E945F
:100E8000B4036ECF2F923F924F925F926F927F92F8
:100E90008F929F92AF92BF92CF92DF92EF92FF928A
:100EA0000F931F93CF93DF93182FEB017A010E94CA
:100EB000B3174B015C01C131D10518F042E050E09D
:100EC00010C1113009F084C0FF92EF9280ED91E0E3
:100ED0009F938F9381E992E09F938F930E94092BB8
:100EE00081E992E00E9486150F900F900F900F906D
:100EF0000F900F9000E010E058E0C52ED12C412C4F
:100F0000512C3201439476EC272E71E0372E0E15CA
:100F10001F0509F4E4C09091820680918306E92FB1
:100F2000F82F8C2F82958F70E80FF11DE80FF11DBF
:100F3000CE01809590958F7099272081318102C0D4
:100F4000369527958A95E2F721703327F80117FD2A
:100F5000379643E0F595E7954A95E1F7C801B60164
:100F60000E94D62AE352FB4FE95AFF4FB301A20178
:100F700004C0440F551F661F771F8A95D2F7DB0107
:100F8000CA012115310519F04081842B03C08095D9
:100F90009081892380833F932F93DF93CF933F9258
:100FA0002F9281E992E09F938F930E94092B81E910
:100FB00092E00E9486150F5F1F4F21964DB75EB7D6
:100FC000485F5F4F0FB6F8945EBF0FBE4DBF9FCF17
:100FD000123009F084C0FF92EF928BED91E09F9365
:100FE0008F9381E992E09F938F930E94092B81E96F
:100FF00092E00E9486150F900F900F900F900F9027
:101000000F9000E010E098E0C92ED12C412C512C1B
:101010003201439436EC232E31E0332E0E151F059A
:1010200009F45DC09091840680918506E92FF82F20
:101030008C2F82958F70E80FF11DE80FF11DCE0106
:10104000809590958F7099272081318102C03695C7
:1010500027958A95E2F721703327F80117FD379617
:1010600083E0F595E7958A95E1F7C801B6010E94FE
:10107000D62AE352FB4FE95AFF4FB301A20104C045
:10108000440F551F661F771F8A95D2F7DB01CA01EF
:101090002115310519F04081842B03C08095908182
:1010A000892380833F932F93DF93CF933F922F9297
:1010B00081E992E09F938F930E94092B81E992E04E
:1010C0000E9486150F5F1F4F21964DB75EB7485F90
:1010D0005F4F0FB6F8945EBF0FBE4DBF9FCF40E08D
:1010E00050E0C501B4010E94B403DF91CF911F917C
:1010F0000F91FF90EF90DF90CF90BF90AF909F90B7
:101100008F907F906F905F904F903F902F900895B9
:101110006DE475E08EE194E00E94C5148091C805ED
:101120009091C9058230910511F0049751F46BE359
:1011300075E08EE194E00E94C51487E795E00E9477
:10114000631487E395E00C94E414FC0124E0F69525
:10115000E7952A95E1F7809590959C012F703327AC
:10116000EE0FFF1F8091840690918506E80FF91F0E
:1011700081E090E0A0E0B0E004C0880F991FAA1FB2
:10118000BB1F2A95D2F7662329F020813181822B5B
:10119000932B06C0809590952081318182239323E3
:1011A0009183808308956C3221E072078105910557
:1011B00009F444C0683522E072078105910509F4FD
:1011C0003FC0603B24E0720781059105D9F160368C
:1011D00029E0720781059105B9F1603C22E17207AF
:1011E0008105910599F1603825E272078105910525
:1011F000C9F1603428E372078105910549F1611551
:101200002BE472078105910529F1603820E7720708
:101210008105910509F1611526E97207810591059E
:10122000E9F0611521EE720781059105C9F061159C
:10123000724C81409105B1F48BE0089580E00895EF
:1012400081E0089582E0089583E0089584E00895A0
:1012500086E0089587E0089588E0089589E008957C
:101260008AE0089585E00895CF92DF92EF92FF9291
:10127000CF938091540290915502A0915602B09163
:1012800057020196A11DB11D8093540290935502FF
:10129000A0935602B0935702C0902C06D0902D0612
:1012A000E0902E06F0902F062FEFC21AD20AE20A23
:1012B000F20AC0922C06D0922D06E0922E06F092F1
:1012C0002F060E94B317609398037093990380933D
:1012D0009A0390939B03C0929C03D0929D03E0924B
:1012E0009E03F0929F0380910B018D3021F08F3F80
:1012F00009F0BBC004C0E3ECF5E0C49175C08DE01B
:1013000080930B01E3ECF5E0E491EF3F09F4ADC00D
:10131000E13009F446C048F1E23009F064C01092AF
:10132000B0001092B1008091B00082608093B00054
:101330008091B10081608093B100E5EEF5E0E49129
:10134000F0E0EE0FFF1FE253FA4F859194919093D6
:10135000AB028093AA02E9EFF5E0E491E093AC02DE
:1013600061E08DE00E943D179DC014BC15BC84B5A2
:10137000826084BD85B5816085BDE5EEF5E0E491D0
:10138000F0E0EE0FFF1FE253FA4F85919491E9EFE1
:10139000F5E0E491E093760261E08DE00E943D1774
:1013A00069C0109280001092810080918100886055
:1013B0008093810080918100816080938100E5EEBF
:1013C000F5E0E491F0E0EE0FFF1FE253FA4F859154
:1013D0009491E9EFF5E0E491E093750261E08DE02E
:1013E0000E943D170EC0CE2FC7FD3FC061E08DE0CB
:1013F0000E943D17CC23F1F1C23009F453C0C13033
:10140000F1F480918100887F83608093810083E282
:1014100094EF909389008093880081E090E0A0E0B1
:10142000B0E08093770290937802A0937902B09312
:101430007A0280916F00826080936F0016C0C23084
:10144000A1F483E28093B30081E090E0A0E0B0E0FB
:101450008093AD029093AE02A093AF02B093B0021E
:101460008091700082608093700080910A018111E8
:101470003BC01FC085B5887F856085BD81E487BD81
:1014800081E090E0A0E0B0E080937B0290937C024A
:10149000A0937D02B0937E0280916E008260809363
:1014A0006E00E3CF8091B10087608093B10081E44A
:1014B000C9CF0E94B317C0907F02D0908002E09005
:1014C0008102F0908202DC01CB018C199D09AE09EA
:1014D000BF09813D9740A105B10580F086E494E005
:1014E0000E94E4140E9457250E94B31760937F0264
:1014F0007093800280938102909382028091000118
:10150000811102C010920A01CF91FF90EF90DF90FD
:10151000CF900895CF93DF93EC018A810E94291622
:10152000892B29F48C810E942916019731F11E82A2
:101530008C810E942916892B19F58A810E9429160F
:101540000197F1F481E08F838C810E942916019725
:10155000C9F48A810E9429160197A1F481E0888745
:101560008C810E942916892B79F48A810E94291680
:10157000892B51F481E0898708C081E08E83D8CF20
:101580001F82E2CF1886ECCF1986DF91CF910895A4
:101590008F929F92AF92BF92CF92DF92EF92FF9283
:1015A0000F931F93CF93DF93EC010E94B3174B016E
:1015B0005C01CE84DF84E888F98880EAC81A8FE06D
:1015C000D80AE108F1088C149D04AE04BF0418F099
:1015D000CE010E948A0A8E859F85A889B989892BA8
:1015E0008A2B8B2BD1F00E94B3170E851F8528897B
:1015F0003989601771078207930778F49E818F817C
:10160000981771F08C149D04AE04BF0448F00E943A
:10161000B3176E877F87888B998B80E090E002C03C
:1016200081E090E0DF91CF911F910F91FF90EF90BB
:10163000DF90CF90BF90AF909F908F9008950F93C1
:101640001F93CF93DF93EC010E94C80A8C01892B72
:10165000E1F461E088810E9452168C859D85019796
:1016600081F00E94B317DC01CB0188579C4EAF4F2D
:10167000BF4F8E879F87A88BB98B81E090E09B87B7
:101680008A8781E090E09D878C87C801DF91CF91A8
:101690001F910F910895CF93DF9380919503882335
:1016A00049F0C09197038AE0C89FE0011124CF5907
:1016B000DC4F02C0C0E0D0E089E295E00E94E41473
:1016C0008091C8059091C9058230910591F130F45F
:1016D000009709F440C00197F1F143C083309105B0
:1016E00019F0049731F13DC061E275E08EE194E0BC
:1016F0000E94C514209749F189859091E8059813B7
:1017000009C020918E0530918F05232B19F46BE0D1
:1017100075E015C09091E705891317C082E895E040
:101720000E948A0A80918905882379F065EF74E028
:1017300006C087E795E0DF91CF910C9463148EE1AA
:1017400094E0DF91CF910C94C51464EE74E08EE1C7
:1017500094E00E94C51482E895E0DF91CF910C944B
:101760001F0BDF91CF9108950F931F93CF93DF93BA
:10177000EC010E94C80A8C01892BD1F460E08881B9
:101780000E9452168C859D85892B81F00E94B3178B
:10179000DC01CB0188579C4EAF4FBF4F8E879F8790
:1017A000A88BB98B81E090E09B878A871D861C8679
:1017B000C801DF91CF911F910F9108952F923F9211
:1017C0004F925F926F927F928F929F92AF92BF9251
:1017D000CF92DF92EF92FF920F931F93CF93DF93FD
:1017E000C82F8B011A010E94B3174B015C01013114
:1017F000110520F042E050E00E94B403CF3019F010
:10180000C53009F0A7C13F922F9287EE91E09F93D8
:101810008F9381E992E09F938F930E94092B81E936
:1018200092E00E9486150F900F900F900F900F90EE
:101830000F90E12CF12C77247394E214F30409F453
:1018400089C18091F204853091F4E114F10411F022
:101850000E94042B2091F5043091F60491E080E081
:101860002F3F310509F090E0C92FD82F1BC08F30D2
:1018700079F7C701F7FC079623E0959587952A9598
:10188000E1F7FC01E652FB4FC68DD0E0C70168E0EE
:1018900070E00E94D62A02C0D595C7958A95E2F7D6
:1018A000C170DD27602E6C2F6170802F0E943B037A
:1018B000DF93CF931F930F93E2EFF1E0FF93EF934A
:1018C00081E992E09F938F930E94092B81E992E036
:1018D0000E9486158DB79EB708960FB6F8949EBFE6
:1018E0000FBE8DBF0115110509F58091C8059091B6
:1018F000C9059C012D7F232B11F00497A1F4809141
:101900002006811110C0CD2B39F07092530287E769
:1019100095E00E94761418C11092530287E795E073
:101920000E94631411C18EE995E01FC001301105BA
:1019300019F58091C8059091C9050297A0F480918E
:101940002006811110C0CD2B39F07092520282E82E
:1019500095E00E94B40BF8C01092520282E895E024
:101960000E941F0BF1C089E795E00E94E41460E03B
:10197000862D0E943B03E8C00230110519F5CD2BDE
:1019800009F4E2C0E0913206F09133068081918142
:10199000039709F0F8C0809120068111F4C080916E
:1019A000C8059091C905049709F4EDC01182108211
:1019B0001682178210861092250610922406109225
:1019C0003406C2C00330110599F5CD2B09F4BCC013
:1019D000809120068111B8C0C4E9D5E098EC492E69
:1019E00095E0592EC12CD12C8091CA0590E0C816E3
:1019F000D9060CF053C0CE010E9481168A859B85C2
:101A000097FD05C09F878E87CE010E94D2138E85D9
:101A10009F85F2019087878370921D06709235062C
:101A2000FFEFCF1ADF0A6A9628E0420E511CDCCF86
:101A30000430110509F041C0CD2B09F485C0809117
:101A40002006811181C0C4E9D5E088EC482E85E0EC
:101A5000582EC12CD12C8091CA0590E0C816D90609
:101A6000ECF4CE010E9481168A859B8597FD05C006
:101A7000998B888BCE010E94D21388899989F201B3
:101A80009287818770921D0670923506FFEFCF1AFC
:101A9000DF0A6A9628E0420E511CDDCF60E0862DF9
:101AA0000E943B038091CA0581114EC042E050E084
:101AB000C501B4010E94B40347C00530110541F4CB
:101AC000CD2B19F0709275053FC0109275053CC082
:101AD0000630110591F5CD2BB9F11092A0031092AB
:101AE000A1031092A2031092A303809193039091FB
:101AF0009403029769F0E091A803F091A90330974D
:101B000009F0099582E090E0909394038093930309
:101B10008091970390919503992351F0923010F49E
:101B200080E006C08F5F853008F080E09150F4CFF0
:101B300010929503809397031ACF0730110521F473
:101B4000CD2B11F0709221069FEFE91AF90A0F5F71
:101B50001F4F73CE40E050E0C501B4010E94B403B2
:101B6000DF91CF911F910F91FF90EF90DF90CF9079
:101B7000BF90AF909F908F907F906F905F904F90AD
:101B80003F902F9008958BE595E00E94E414DCCF00
:101B9000CF93DF9380919503882349F0C0919703F9
:101BA0008AE0C89FE0011124CF59DC4F02C0C0E099
:101BB000D0E087ED94E00E94E41460ED74E08EE1E3
:101BC00094E00E94C514488550E060E070E02AE08F
:101BD0008EE194E00E94F7146DE571E08EE194E0EF
:101BE0000E94B5146BEC74E08EE194E00E94C51481
:101BF000498550E060E070E02AE08EE194E00E94C8
:101C0000F7146DE571E08EE194E00E94B51463EC89
:101C100074E08EE194E00E94C5144C815D816E8178
:101C20007F812AE08EE194E00E94F7146DE571E077
:101C30008EE194E00E94B5148091C8059091C90589
:101C40008230910509F442C028F40097D1F0019741
:101C5000C1F042C08330910519F00497B9F13CC03E
:101C600089859091E805981312C069EB74E08EE1C4
:101C700094E00E94C51468EA74E08EE194E00E944A
:101C8000C51482E895E0DF91CF910C94B40B90914C
:101C9000E705891309C06EE974E08EE194E00E94C3
:101CA000C5146DE874E008C063E874E08EE194E068
:101CB0000E94C51462E674E08EE194E00E94C514AF
:101CC00082E895E0DF91CF910C941F0B87E795E0B8
:101CD000DF91CF910C947614DF91CF910895CF923C
:101CE000DF92EF92FF920F931F93CF93DF936C01DC
:101CF0007A018B01C0E0D0E0CE15DF0581F0D8017C
:101D00006D918D01D601ED91FC910190F081E02D56
:101D1000C6010995892B11F02196EECF7E01C701EE
:101D2000DF91CF911F910F91FF90EF90DF90CF90B7
:101D30000895FC01538D448D252F30E0842F90E0D1
:101D4000821B930B541710F0CF96089501970895B6
:101D5000FC01918D828D981761F0828DDF01A80FB3
:101D6000B11D5D968C91928D9F5F9F73928F90E0D5
:101D700008958FEF9FEF0895FC01918D828D981744
:101D800031F0828DE80FF11D858D90E008958FEF81
:101D90009FEF0895FC01918D228D892F90E0805C4A
:101DA0009F4F821B91098F73992708958DE394E0CB
:101DB0000E94CA0E21E0892B09F420E0822F0895A9
:101DC000FC01848DDF01A80FB11DA35ABF4F2C91D8
:101DD000848D90E001968F739927848FA689B789A7
:101DE0002C93A089B1898C91837080648C93938D9E
:101DF000848D981306C00288F389E02D80818F7D41
:101E000080830895EF92FF920F931F93CF93DF93F8
:101E1000EC0181E0888F9B8D8C8D981305C0E8893B
:101E2000F989808185FD26C0F62E0B8D10E00F5FAD
:101E30001F4F0F731127E02E8C8DE8120CC00FB6C8
:101E400007FCFACFE889F989808185FFF5CFCE01BB
:101E50000E94E00EF1CF8B8DFE01E80FF11DE35AD9
:101E6000FF4FF0829FB7F8940B8FEA89FB8980813E
:101E700080620AC09FB7F894EE89FF896083E88981
:101E8000F98980818370806480839FBF81E090E0C6
:101E9000DF91CF911F910F91FF90EF900895CF9315
:101EA000DF93EC01888D8823C9F0EA89FB89808162
:101EB00085FD05C0A889B9898C9186FD0FC00FB634
:101EC00007FCF5CF808185FFF2CFA889B9898C9175
:101ED00085FFEDCFCE010E94E00EE7CFDF91CF91DD
:101EE000089580E090E0892B29F00E94D60E8111A0
:101EF0000C940000089585ED8093BC008091BC0097
:101F000084FDFCCF10924B02089540913103262F9F
:101F100030E0240F311D21323105DCF420914B02D9
:101F20002430C9F4FC0180E090E0861758F4309129
:101F300031032191DC01AF5EBC4FA30FB11D2C9387
:101F40000196F3CF80913103680F6093310380E0F5
:101F5000089581E0089582E0089508950895089510
:101F6000E0914F0280914E02E81730F4F0E0EF501C
:101F7000FD4F808190E008958FEF9FEF089590913D
:101F80004F0280914E02981750F4E92FF0E0EF5085
:101F9000FD4F208130E09F5F90934F0202C02FEFF2
:101FA0003FEFC901089580914E0290E020914F02C9
:101FB000821B91090895CF92DF92EF92FF920F93C7
:101FC0001F93CF93DF937C01CB018A0120914402C0
:101FD000222389F0EB016B01C40ED51ECC15DD0563
:101FE00069F06991D701ED91FC910190F081E02DAC
:101FF000C7010995F3CF642F0E94850FC801DF91B7
:10200000CF911F910F91FF90EF90DF90CF900895A7
:10201000CF93DF931F92CDB7DEB76983209144023F
:102020002223D1F020914C02203240F021E030E018
:10203000FC013383228380E090E015C080914D0243
:10204000E82FF0E0EC5DFD4F998190838F5F8093E6
:102050004D0280934C0205C061E0CE0101960E94C2
:10206000850F81E090E00F90DF91CF91089520914E
:10207000FE013091FF012817390771F49091FC019E
:102080008091FD01981741F0E091FC01F0E0EF54E0
:10209000FD4F808190E008958FEF9FEF08951F938B
:1020A000CF93DF93DC015C968D919C915D970097B7
:1020B00039F421E030E013963C932E9312973BC005
:1020C0005196ED91FC91529750962C915097322F4A
:1020D00030951FB75E964C915E97742F727041FDDC
:1020E0006095F8944081772311F0422B01C043237F
:1020F0004083EC012197F1F748E0508160FF02C076
:10210000522B01C053235083EC012197F1F76695C0
:10211000415099F78081772319F08323808302C08F
:10212000282B20831FBF5C968D919C915D97019712
:10213000F1F781E090E0DF91CF911F910895209118
:10214000FE013091FF012817390771F48091FD01DC
:102150002091FC0190E0805C9F4F821B910960E41C
:1021600070E00E94D62A089580E090E008952091C2
:10217000FE013091FF0128173907B9F49091FC0155
:102180008091FD01981789F0E091FC01F0E0EF5497
:10219000FD4F80812091FC0130E02F5F3F4F2F7376
:1021A00033272093FC0190E008958FEF9FEF08956F
:1021B000089580E090E008950E94042BCF92DF9272
:1021C000EF92FF92CF93DF93EC010E9481166A8514
:1021D0007B8516161706ACF5072E000C880B990B9D
:1021E0000E9411282A893B894C895D890E947028A8
:1021F0002E893F89488D598D0E94BD296B017C0134
:1022000020E030E048EC52E40E94D12A18166CF02D
:1022100020E030E0A901C701B6010E940A2887FF2B
:102220000AC0C12CD12C760106C0C12CD12C88EC5F
:10223000E82E82E4F82EC701B6010E94A22A862F5A
:1022400001C08FEFDF91CF91FF90EF90DF90CF90A3
:1022500008951F920F920FB60F9211242F933F9360
:102260004F935F936F937F938F939F93AF93BF939E
:10227000EF93FF938091AD029091AE02A091AF02D7
:10228000B091B002892B8A2B8B2B59F19091AC0223
:10229000E091AA02F091AB0280818927808380912E
:1022A000AD029091AE02A091AF02B091B0021816AB
:1022B00019061A061B060CF03DC08091AD029091E4
:1022C000AE02A091AF02B091B0020197A109B1098D
:1022D0008093AD029093AE02A093AF02B093B00290
:1022E00029C080910B01E3ECF5E0E4919FEF90931E
:1022F0000B01E130B9F098F0E230C9F49091700030
:102300009D7F9093700091E09093B0009091B10008
:10231000987F94609093B1001092B30008C010921F
:102320006E0005C090916F009D7F90936F0060E0FC
:102330000E945216FF91EF91BF91AF919F918F91A3
:102340007F916F915F914F913F912F910F900FBEB1
:102350000F901F9018951F920F920FB60F92112495
:102360002F933F934F935F936F937F938F939F939D
:10237000AF93BF93EF93FF938DE394E00E94E00E41
:10238000FF91EF91BF91AF919F918F917F916F914D
:102390005F914F913F912F910F900FBE0F901F9023
:1023A00018951F920F920FB60F9211242F938F93AF
:1023B0009F93EF93FF93E0914D04F0914E04808141
:1023C000E0915304F091540482FD12C090818091F9
:1023D00056048F5F8F7320915704821751F0E0915C
:1023E0005604F0E0E35CFB4F958F8093560401C0E8
:1023F0008081FF91EF919F918F912F910F900FBE50
:102400000F901F9018951F920F920FB60F921124E4
:102410002F933F934F935F936F937F938F939F93EC
:10242000AF93BF93EF93FF938091B900887F80367D
:1024300009F49CC068F5883209F45BC090F48031DF
:1024400009F454C038F4882309F4F6C0883009F43C
:102450004DC0F6C0883109F44CC0803209F45DC02B
:10246000EFC0803409F468C048F4803309F455C0E3
:10247000883309F0E5C080932302D8C0803509F481
:102480004FC0883509F45DC0883409F0D9C0D6C082
:10249000883909F4C7C0A8F4883709F467C038F44C
:1024A000883609F463C0803709F460C0C9C0883831
:1024B00009F4B8C0803909F45FC0803809F0C0C0A1
:1024C0005BC0803B09F486C038F4803A09F466C0EA
:1024D000883A09F47FC0B4C0803C09F4A7C0883CA6
:1024E00009F4A4C0883B09F48AC0AAC08091000204
:1024F00010C09091220280912102981770F5E0910E
:10250000220281E08E0F80932202F0E0EF5FFD4F08
:1025100080818093BB0085EC86C0809323028EC0AF
:10252000E091220281E08E0F809322028091BB0015
:10253000F0E0EF5FFD4F80839091220280912102B5
:102540006EC0E091220281E08E0F80932202809182
:10255000BB00F0E0EF5FFD4F808380914A02811164
:102560006DC081E08093490284EA61C083E080937A
:102570004B0210925303CFCF80915303803208F067
:1025800051C0E091530381E08E0F809353038091FB
:10259000BB00F0E0ED5CFC4F8083BDCF85EC809309
:1025A000BC0010924B0280915303803230F4E091D2
:1025B0005303F0E0ED5CFC4F10826091530370E038
:1025C000E0914502F091460283E393E00995109271
:1025D000530336C084E080934B0210923203109272
:1025E0003103E0914702F09148020995809131034F
:1025F000811105C081E08093310310921103E091B5
:10260000320381E08E0F80933203F0E0EF5EFC4FE7
:1026100080818093BB0090913203809131039817A1
:1026200008F479CF85E88093BC000AC085EC8093DC
:10263000BC0010924B0204C0109223020E947B0F38
:10264000FF91EF91BF91AF919F918F917F916F918A
:102650005F914F913F912F910F900FBE0F901F9060
:1026600018951F920F920FB60F9211242F933F933C
:102670004F935F936F937F938F939F93AF93BF938A
:10268000EF93FF93E0915002F09151020995FF9171
:10269000EF91BF91AF919F918F917F916F915F91DA
:1026A0004F913F912F910F900FBE0F901F90189553
:1026B0001F920F920FB60F9211242F933F934F93B7
:1026C0005F936F937F938F939F93AF93BF93EF939A
:1026D000FF93E091FE01F091FF01309709F451C0A2
:1026E000968DA685B785858591FF04C09C91892329
:1026F00029F447C09C91892309F043C0A389B48978
:102700009C918589809589238C93868997890197E7
:10271000F1F7608D718DA685B785558538E020E08D
:10272000CB010197F1F7822F90E095958795282F9F
:102730004C91452309F02068315091F7868D81FD39
:1027400020958091FD0190E001968F73992730913B
:10275000FC01381749F0A091FD01B0E0AF54BD4F26
:102760002C938093FD0103C0868D8160868F828DBE
:10277000938D0197F1F7A389B4899C918589892B61
:102780008C93FF91EF91BF91AF919F918F917F912A
:102790006F915F914F913F912F910F900FBE0F90CE
:1027A0001F901895CF92DF92EF92FF920F931F9395
:1027B000CF93DF93EC01088919896E857F85601BB3
:1027C000710B072E000C880B990B0E9411289B019E
:1027D000AC0160E070E088EC92E40E94292A6B0171
:1027E0007C016A8B7B8B8C8B9D8BB801110F880BC6
:1027F000990B0E941128A70196010E947028DC0104
:10280000CB01B0588E8B9F8BA88FB98FDF91CF9162
:102810001F910F91FF90EF90DF90CF900895CF928E
:10282000DF92EF92FF920F931F93CF93DF93EC0110
:10283000CB01B9012FE030E03B832A839D838C8359
:102840005F834E83072E000C880B990B0E94112882
:102850002AE43BE44BE652E40E9470280E949B2A43
:1028600079876887FF86EE86D98AC88ACE010E945A
:10287000D213C8010197C29710F41B830A8361E049
:102880008C810E943D1760E08E81DF91CF911F9176
:102890000F91FF90EF90DF90CF900C943D17CF9366
:1028A000DF93EC0188850E9429162A85019721F47F
:1028B000222321F0188204C02223E1F381E08883DF
:1028C000DF91CF910895CF93DF93EC010E944F14D5
:1028D0008881811118828C81882311F061E001C008
:1028E00060E08A81DF91CF910C945216CF93DF93F1
:1028F000EC010E944F14888181110DC081E0888312
:102900008C81882311F060E001C061E08A81DF9151
:10291000CF910C945216DF91CF910895CF93DF930E
:10292000EC018D810E9429162F81019721F4222329
:1029300021F0198204C02223E1F381E08983898197
:10294000DF91CF910895CF93DF93C2E8D5E061E0A6
:1029500088810E943D1762E08A810E943D1762E0F3
:102960008C81DF91CF910C943D176115710551F069
:10297000FB0101900020E9F73197AF01461B570B8F
:102980000C946F0E80E090E00895EF92FF920F9309
:102990001F93CF93DF938C017B01C0E0D0E0F70160
:1029A000EC0FFD1F6491662339F0C8010E944F109F
:1029B000892B11F02196F3CFCE01DF91CF911F919A
:1029C0000F91FF90EF900895CF93DF93BC018EE1BC
:1029D00094E00E94C514EC016DE571E08EE194E095
:1029E0000E94B5148C0F9D1FDF91CF9108958F9297
:1029F0009F92AF92BF92EF92FF920F931F93CF934C
:102A0000DF93CDB7DEB7A1970FB6F894DEBF0FBE48
:102A1000CDBF7C01FA01CB0119A2223008F42AE0D3
:102A20008E010F5D1F4F822E912CA12CB12CBF0166
:102A3000A50194010E949A29F901CA0101501109C6
:102A40006A3014F4605D01C0695CD8016C93232B7B
:102A5000242B252B61F7B801C7010E94B514A1965C
:102A60000FB6F894DEBF0FBECDBFDF91CF911F919F
:102A70000F91FF90EF90BF90AF909F908F9008952F
:102A8000CF92DF92EF92FF92CF93DF93AB01BC0125
:102A900077FF1DC06A017B016DE28EE194E00E9428
:102AA0004F10EC0144275527BA014C195D096E09F6
:102AB0007F092AE08EE194E00E94F7148C0F9D1F9D
:102AC000DF91CF91FF90EF90DF90CF9008952AE0B3
:102AD0008EE194E0DF91CF91FF90EF90DF90CF9067
:102AE0000C94F714CF93DF93BC01990F880B990BCB
:102AF0000E944015EC016DE571E08EE194E00E94CA
:102B0000B5148C0F9D1FDF91CF910895CF93DF9364
:102B1000BC018EE194E00E94B514EC016DE571E01A
:102B20008EE194E00E94B5148C0F9D1FDF91CF9130
:102B30000895EF920F931F938093790590937A05F0
:102B400060937B0550937D0540937C0520937E0523
:102B50001093800500937F05E092810561E00E945B
:102B60003D1762E080917C050E943D1762E08091F4
:102B70007F050E943D1787E795E00E944F149091D2
:102B8000770580917B05992321F0882321F060E06F
:102B900003C08823E1F361E0809179050E94521619
:102BA00087E795E00E948E1487E795E01F910F91CB
:102BB000EF900C944F14833081F028F4813099F019
:102BC0008230A1F008958730A9F08830B9F08430C0
:102BD000D1F4809180008F7D03C0809180008F7739
:102BE00080938000089584B58F7702C084B58F7D6F
:102BF00084BD08958091B0008F7703C08091B000AC
:102C00008F7D8093B00008953FB7F89480918B0634
:102C100090918C06A0918D06B0918E0626B5A89B4A
:102C200005C02F3F19F00196A11DB11D3FBFBA2F5E
:102C3000A92F982F8827820F911DA11DB11DBC01BE
:102C4000CD0142E0660F771F881F991F4A95D1F783
:102C50000895CF93DF93282F30E0F901E65FF94F15
:102C60008491F901E451FA4FD491F901E852FA4FF5
:102C7000C491CC2391F081110E94DB15EC2FF0E080
:102C8000EE0FFF1FEC53FA4FA591B491EC91ED2399
:102C900081E090E021F480E002C080E090E0DF91EC
:102CA000CF9108951F93CF93DF93282F30E0F90140
:102CB000E65FF94F8491F901E451FA4FD491F9019B
:102CC000E852FA4FC491CC23C1F0162F81110E9413
:102CD000DB15EC2FF0E0EE0FFF1FE253FA4FA5914A
:102CE000B4919FB7F894111104C08C91D095D8235A
:102CF00002C0EC91DE2BDC939FBFDF91CF911F913F
:102D000008952F923F924F925F926F927F928F928F
:102D10009F92AF92BF92CF92DF92EF92FF920F936A
:102D20001F93CF93DF93EC01812C912C412C512CDC
:102D30003201A12CB12C23E2222E312C8A819B81DD
:102D4000881699060CF062C060E08C810E945216D1
:102D500083E090E00197F1F761E08C810E945216C8
:102D6000C1010197F1F760E08C810E94521608853D
:102D700019858E819F819927FC01E451FA4F649156
:102D8000FC01E852FA4FE491F0E0EE0FFF1FEC5324
:102D9000FA4F85919491012E000C220B330B3F705A
:102DA000462F0E940918611571058105910571F082
:102DB0006B017C012FEFC21AD20AE20AF20A8FE0FD
:102DC000F822C114D104E104F10421F4CC24CA9402
:102DD000DC2C7601C701B6010E9440156BE571E05D
:102DE0008EE194E00E94B5141C141D045CF40D2CBB
:102DF000000CEE08FF084C0C5D1C6E1C7F1C2FEFB6
:102E0000A21AB20A8FEF881A980A98CFA114B104B7
:102E1000D9F09501BB0C440B550BC301B2010E94C4
:102E200044293B872A87B901330F880B990B0E94ED
:102E3000112826E933E44BE85CE30E9470280E94E5
:102E40009B2A7D876C8706C08FEF9FEF9B878A87C1
:102E50009D878C87DF91CF911F910F91FF90EF900D
:102E6000DF90CF90BF90AF909F908F907F906F90AA
:102E70005F904F903F902F900895CF93DF9390E015
:102E8000FC01E451FA4F2491FC01E852FA4F84917D
:102E9000882361F190E0880F991FFC01E050FA4F00
:102EA000C591D491FC01E253FA4FA591B4916111FF
:102EB00009C09FB7F8948881209582238883EC917C
:102EC0002E230BC0623061F49FB7F8948881322FB3
:102ED000309583238883EC912E2B2C939FBF06C0C3
:102EE0008FB7F894E8812E2B28838FBFDF91CF9185
:102EF00008958F929F92AF92BF92CF92DF92EF92FE
:102F0000FF926B017C010E9404164B015C01C1140D
:102F1000D104E104F104F1F00E940416DC01CB01BC
:102F200088199909AA09BB09883E9340A105B105F2
:102F300070F321E0C21AD108E108F10888EE880E8A
:102F400083E0981EA11CB11CC114D104E104F1045A
:102F500019F7DDCFFF90EF90DF90CF90BF90AF904B
:102F60009F908F9008952FB7F89460918706709185
:102F700088068091890690918A062FBF08951F9236
:102F80000F920FB60F9211242F933F938F939F931D
:102F9000AF93BF938091870690918806A091890690
:102FA000B0918A063091860623E0230F2D3720F456
:102FB0000196A11DB11D05C026E8230F0296A11D93
:102FC000B11D209386068093870690938806A09370
:102FD0008906B0938A0680918B0690918C06A09109
:102FE0008D06B0918E060196A11DB11D80938B06B2
:102FF00090938C06A0938D06B0938E06BF91AF91EF
:103000009F918F913F912F910F900FBE0F901F9026
:103010001895CF92DF92EF92FF920F931F93E82FB4
:10302000F92F05C0015011092109310961F1908181
:1030300096239417B9F305C00150110921093109EC
:1030400011F1908196239413F7CFC12CD12CE12C50
:10305000F12C0AC08FEFC81AD80AE80AF80A0C1532
:103060001D052E053F0579F080818623841791F395
:103070006C2D7D2D8E2D9F2D1F910F91FF90EF9028
:10308000DF90CF90089560E070E080E090E01F91C5
:103090000F91FF90EF90DF90CF900895CF93DF9343
:1030A00000D000D01F92CDB7DEB7789484B582608F
:1030B00084BD84B5816084BD85B5826085BD85B5DC
:1030C000816085BD80916E00816080936E0010925A
:1030D00081008091810082608093810080918100D5
:1030E0008160809381008091800081608093800066
:1030F0008091B10084608093B1008091B0008160C4
:103100008093B00080917A00846080937A008091EF
:103110007A00826080937A0080917A008160809347
:103120007A0080917A00806880937A001092C100C2
:1031300060E086E00E943D1760E082E00E943D175B
:1031400060E083E00E943D1760E080E10E943D174F
:1031500060E081E10E943D1762E08EE00E943D1731
:1031600062E08FE00E943D1761E08DE00E943D1714
:1031700061E08CE30E943D1761E087E00E943D170B
:1031800061E084E00E943D1761E085E00E943D1708
:1031900061E088E00E943D1761E08CE00E943D17ED
:1031A00061E088E00E94521661E08CE00E945216B5
:1031B0001092390410923804109237041092360499
:1031C00010923504109234048FE190E090933B0408
:1031D00080933A0490912A04963108F058C021E077
:1031E00030E030933504209334042DE130E0309307
:1031F0003704209336042DE030E0309339042093D7
:10320000380440916800983058F031E09E3008F45E
:1032100030E021E0822F01C0880F3A95EAF701C023
:1032200084E0842B80936800983038F09E3040F022
:10323000963148F42CE630E008C02DE630E005C0B9
:103240002BE630E002C020E030E0309332042093DF
:103250003104983030F481E001C0880F9A95EAF784
:103260000EC0292F30E09E3018F42850310902C0DA
:103270002E50310981E001C0880F2A95EAF780932A
:10328000330480913A0490913B040197F1F78091C7
:10329000380490913904892B49F1E091FE01F091B5
:1032A000FF0124E0EE31F20709F1309739F0A389EC
:1032B000B4899C918589809589238C9380913C0465
:1032C0008E7F80933C041092FD011092FC018EE1F0
:1032D00094E09093FF018093FE01E0913104F0911E
:1032E0003204908180913304892B808365E770E0FC
:1032F0008EE194E00E94C51481EE93E09093E10486
:103300008093E0048EED9BE09093DF048093DE04D5
:103310008FE896E09093DD048093DC0482E497E0EC
:103320009093DB048093DA04C090E205D090E3052B
:10333000E090E405F090E50560E079E08DE390E051
:10334000A70196010E949A29DA01C9010197A109F2
:10335000B109B695A795979587959C01E0914D0485
:10336000F0914E0482E08083C11481EED806E1041E
:10337000F10421F0211590E13907B8F0E0914D04F6
:10338000F0914E04108260E874E88EE190E0A701AD
:1033900096010E949A29DA01C9010197A109B10990
:1033A000B695A795979587959C01E0914904F09172
:1033B0004A043083E0914B04F0914C042083109236
:1033C0005504E0915104F091520486E08083E0912D
:1033D0004F04F0915004808180618083E0914F041C
:1033E000F0915004808188608083E0914F04F091D7
:1033F0005004808180688083E0914F04F0915004F4
:1034000080818F7D8083C090E205D090E305E090BD
:10341000E405F090E50510924F0210924E021092D2
:103420004D0210924C0210924B02A1E0A0934A026E
:103430001092490261E082E10E94521661E083E14C
:103440000E9452168091B9008E7F8093B9008091BE
:10345000B9008D7F8093B90088E48093B80085E43B
:103460008093BC008DEA9FE09093480280934702CE
:103470008EEA9FE09093460280934502B0916003EC
:10348000BB83E1E0E0934402B093580210924D02F6
:1034900010924C0264E284E593E00E94081061E01F
:1034A00084E593E00E94081090914C02913208F05C
:1034B00046C080914B028111FCCF82E080934B0289
:1034C00081E080934A028FEF8093230210922202C0
:1034D00090932102A4E2B2E0E1E0F2E080E09817EC
:1034E00021F02D9121938F5FFACF109200028091ED
:1034F0000002FB81FF0FF82BF0930002809149023C
:10350000813061F410924902809100028093BB00E7
:103510008091BC0083FDF8CF85EC01C085EE8093DF
:10352000BC0080914B028230E1F3809123028F3FF7
:1035300031F080912302803211F0809123021092A9
:103540004D0210924C02109244028091EE04909130
:10355000EF04009719F061E00E943D17E091E2044A
:10356000F091E304148215821682178221E0C216BC
:103570002BE4D206E104F10468F086ED96E0A0E0C9
:10358000B0E08093E4049093E504A093E604B09344
:10359000E70410C060EC7EE086E192E0A7019601AE
:1035A0000E949A292093E4043093E5044093E604B2
:1035B0005093E7041092ED041092EC041092E8048A
:1035C0001092E9041092EA041092EB0468E471E0AE
:1035D0008EE194E00E94B5144091F00450E060E068
:1035E00070E02AE08EE194E00E94F7146EE471E04E
:1035F0008EE194E00E94B5142AE0B701A6018EE1A5
:1036000094E00E94F71467E571E08EE194E00E9477
:10361000B51482E790E00E94E41480E18093810079
:103620001092800082E19AE7909387008093860051
:1036300084E18093810084E399E090935102809328
:10364000500281E080936F0081E091E09093330617
:103650008093320688E690E00E94E41488EC9DE0B6
:103660009093A5038093A4038BE49BE09093A7031E
:103670008093A60388E898E09093A9038093A80319
:103680009CE088E10FB6F894A895809360000FBE87
:1036900090936000EEEE4E2EE2E05E2E612C712CD7
:1036A0008091210681110E945725A89580911E06C0
:1036B000882309F4E3C081E080931D068091800691
:1036C000909181069D838C83DC011C962D913C9109
:1036D0001D978091E70590E0A9015527841795076C
:1036E00011F02093E705EC81FD81F585F9831A82BD
:1036F0008091E80590E029813A818217930711F0C3
:103700002093E805AC81BD8118960D911C91199705
:10371000812F99278F7099272091C8053091C9056D
:103720002817390739F09093C9058093C80581E0BF
:1037300080931F066091E2057091E3058091E40596
:103740009091E5050E94D3089801232F33272295F5
:103750002F7090E08217930709F461C02223E1F0F3
:103760002130F9F0223011F1233029F1243041F1D8
:10377000253009F443C0263041F1273059F1283073
:1037800071F1293089F12A30A1F12B30B9F580E0AF
:1037900092ECA1E0B0E036C08CE291E0A0E0B0E0B5
:1037A00031C088E592E0A0E0B0E02CC080EB94E06E
:1037B000A0E0B0E027C080E699E0A0E0B0E022C041
:1037C00080EC92E1A0E0B0E01DC080E498E3A0E0CE
:1037D000B0E018C080E09BE4A0E0B0E013C080E857
:1037E00090E7A0E0B0E00EC080E096E9A0E0B0E095
:1037F00009C080E091EEA0E0B0E004C080E895E26E
:10380000A0E0B0E08093E2059093E305A093E40587
:10381000B093E50581E080931D0680931F0680919B
:10382000E60590E0980133278217930739F000935B
:10383000E60581E080931D0680931F06EC81FD81E3
:10384000828590E0A0E0B0E04091DE055091DF0578
:103850006091E0057091E105481759076A077B07F9
:1038600059F08093DE059093DF05A093E005B093B7
:10387000E10581E080931D0610921E0680911D06D1
:10388000882309F42FC28091E6052091C805309164
:10389000C9052F703327B22FAA27A82BBD83AC836D
:1038A0006091E2057091E3058091E4059091E50552
:1038B0000E94D308E0918006F091810690E0982F55
:1038C00088279295907F2C813D81282B392B318739
:1038D00020878091DE059091DF0599279387828765
:1038E0008091E7059091E8059587848789E090E0CD
:1038F00090936202809361024092690250926A0240
:1039000060926B0270926C0282E390E0909364028A
:103910008093630287E791E0A0E0B0E080936D02BE
:1039200090936E02A0936F02B09370028093710225
:1039300090937202A0937302B093740261E089E0E5
:103940000E943D1783E08093600261E080916102F4
:103950000E9452168091C8059091C9059C012D7F47
:10396000232B11F0049771F4E090DD050FE010E0D7
:103970002091DC054EE050E06091DB058CE090E0AA
:103980000E9499158091C8059091C90582309105D2
:1039900010F00397C1F488E090E090938305809342
:1039A000820580E190E0909385058093840581E114
:1039B00090E090938705809386050E94A31482E887
:1039C00095E00E941F0B8091C8059091C905892B35
:1039D00009F0CDC0C090D105D090D205E090CF05C0
:1039E000F090D0050091CD051091CE052091CB052A
:1039F0003091CC0542E050E064E070E084E995E06D
:103A00000E940F1484E995E09093AF038093AE0376
:103A10001092E5031092E40382E390E09093B103E7
:103A20008093B0038AE0282E312C3092B303209289
:103A3000B20390E1892E97E2992EA12CB12C8092AD
:103A4000B4039092B503A092B603B092B70310925C
:103A5000D6031092D7031092D8031092D903109274
:103A6000D0031092CF031092CE031092CD039FEF9C
:103A70009093BE031092B8031092B9031092BA0348
:103A80001092BB031092BF031092C0031092C103A7
:103A90001092C2031092BD031092BC0381E0809388
:103AA000CA058091C8059091C905892B09F061C0AC
:103AB000C090D905D090DA05E090D705F090D805F0
:103AC0000091D5051091D6052091D3053091D405EC
:103AD00043E050E065E070E08EEA95E00E940F144C
:103AE0008EEA95E09093E7038093E60310921D041D
:103AF00010921C04A2E3B0E0B093E903A093E803A2
:103B00003092EB032092EA038092EC039092ED0353
:103B1000A092EE03B092EF0310920E0410920F04E5
:103B200010921004109211041092080410920704CD
:103B30001092060410920504BFEFB093F6031092A2
:103B4000F0031092F1031092F2031092F30310921B
:103B5000F7031092F8031092F9031092FA031092EF
:103B6000F5031092F40382E08093CA0502C010921C
:103B7000CA0562E08EE00E943D17109273058EE048
:103B800090E090937205809371058091C8059091A3
:103B9000C9059C012D7F2130310551F42CEF3FEFF9
:103BA0003093AB032093AA033093AD032093AC036F
:103BB00020911D06222341F18230910519F08430B5
:103BC000910579F4E0913206F091330683E090E0BC
:103BD0009183808387E795E09583848313821282A3
:103BE00013C08230910510F0039771F4E091320612
:103BF000F091330683E090E09183808382E895E042
:103C0000938382831582148280915402909155028D
:103C1000A0915602B09157020697A105B10508F48C
:103C20005BC0E0911606F091170681A192A1A3A1B5
:103C3000B4A10196A11DB11D81A392A3A3A3B4A316
:103C40002091EF053091F0053D832C835F0131E237
:103C5000A30EB11C8C809D8084E0880E911CD50140
:103C60001D915D018C819D810E942E29181729F0DC
:103C7000612F8C819D810E943629EC81FD813196D6
:103C8000FD83EC838E169F0651F72091ED05309150
:103C9000EE053D832C83A0901606B09017064901CF
:103CA00035E2830E911CD5011D915D018C819D81B2
:103CB0000E942E29181729F0612F8C819D810E9466
:103CC0003629EC81FD813196FD83EC83E815F905F9
:103CD00051F781E08093180610921D0680911F060F
:103CE0008111E1CC809171050E9429162091730504
:103CF000019729F4222329F01092760505C022238A
:103D0000D9F381E08093760560917505611102C059
:103D10006091760560932006E0917E06F0917F0623
:103D200080819181662311F0816001C08E7F918333
:103D3000808380912406882321F080819181826094
:103D400003C0808191818D7F91838083809125063E
:103D5000882321F080819181846003C080819181DA
:103D60008B7F9183808380912206882321F080813C
:103D70009181886003C080819181877F9183808356
:103D800080912306882321F080819181806103C086
:103D9000808191818F7E9183808380911C0688230E
:103DA00021F080819181806203C0808191818F7D2B
:103DB0009183808380911B06882321F080819181EB
:103DC000806403C0808191818F7B91838083809107
:103DD0003406882321F080819181806803C080812E
:103DE00091818F779183808380913506882321F09C
:103DF00080819181916003C0808191819E7F9183B8
:103E00008083A0913206B09133068D919C910397E7
:103E100021F080819181926003C0808191819D7F9A
:103E2000918380838091930390919403029721F46E
:103E300080819181946003C0808191819B7F918377
:103E4000808380E090E00E94A5086091240681E0D4
:103E500090E00E94A5086091220683E090E00E9415
:103E6000A5086091230684E090E00E94A508609177
:103E7000250682E090E00E94A50860911C0685E07E
:103E800090E00E94A50860911B0686E090E00E94E9
:103E9000A5086091340687E090E00E94A508609133
:103EA000350688E090E00E94A508E0913206F09186
:103EB000330661E080819181039709F460E089E035
:103EC00090E00E94A50861E0809193039091940393
:103ED000029709F060E08AE090E00E94A508E09176
:103EE0007E06F0917F068091280690912906A09188
:103EF0002A06B0912B0691878087B783A68380918D
:103F0000CA05882379F08091260690E09383828306
:103F10008091CA0590E002972CF08091270690E0EE
:103F200095838483E0918006F091810680912C0630
:103F300090912D06A0912E06B0912F06978386832F
:103F4000B583A48380912506811108C09091240631
:103F5000911104C0909120069923B1F090913106FF
:103F6000911110C08FE294E00E94E414109260025C
:103F700081E0809331061092340687E795E00E9435
:103F8000631426C0811124C080912406811120C0B1
:103F90008091200681111CC0809131068823C1F0D8
:103FA00088E194E00E94E41483E080936002109220
:103FB000310681E08093340680913006882341F0F9
:103FC00087E795E00E9476148FEE93E00E94E41458
:103FD000C0905402D0905502E0905602F0905702E3
:103FE00080915C0290915D02A0915E02B0915F02AF
:103FF000C816D906EA06FB0609F4D4C0C0925C02D2
:10400000D0925D02E0925E02F0925F0281E08093C6
:104010000A0166EE73E08EE194E00E94C5142AE086
:10402000B701A6018EE194E00E94F71469ED73E0F8
:104030008EE194E00E94C51440912C0650912D060B
:1040400060912E0670912F062AE08EE194E00E9486
:10405000F7146EEC73E08EE194E00E94C514E091D9
:104060007E06F0917F06208131813D832C830FE015
:1040700010E08C819D81002E02C0969587950A9450
:10408000E2F7892BC9F18C819D81AC0160E070E081
:1040900022E08EE194E00E94F7146DE571E08EE17C
:1040A00094E00E94B5148091CA05882381F162ECE6
:1040B00073E08EE194E00E94C5144091260650E022
:1040C00060E070E02AE08EE194E00E94F71463EB78
:1040D00073E08EE194E00E94C5144091270650E001
:1040E00060E070E02AE08EE194E00E94F71481EB3A
:1040F00093E00E94E4140BC06CE870E08EE194E061
:104100000E94C5140150110909F0B3CFBCCF8091B2
:10411000C8059091C9058230910511F00497A9F462
:104120008091010190910201039779F4CAC187E758
:1041300095E00E944F1480917705882309F4D7C138
:1041400080913006882309F4ECC18091C8059091D4
:10415000C905029738F580910101909102010397FA
:1041600009F580915202811118C080913006882390
:1041700009F483C282E895E00E948A0A809188054A
:10418000882309F437C21092250610925B02109220
:1041900059028FE493E00E94E41480913006882352
:1041A00009F46BC2809160028130D1F058F0823006
:1041B000D9F1833009F067C061E0809161020E940B
:1041C000521661C00E94B317609365027093660235
:1041D000809367029093680281E08093600253C0ED
:1041E00060E0809161020E9452160E94B317009114
:1041F0006502109166022091670230916802DC012D
:10420000CB01801B910BA20BB30B00916D0210919F
:104210006E0220916F023091700280179107A20701
:10422000B30788F182E023C061E0809161020E94BF
:1042300052160E94B31700916502109166022091F8
:10424000670230916802DC01CB01801B910BA20B4D
:10425000B30B0091710210917202209173023091A0
:10426000740280179107A207B30768F081E080937A
:1042700060020E94B3176093650270936602809398
:1042800067029093680280915B02882309F449C217
:104290008091010190910201039709F042C225C06B
:1042A0000E94B31781E090E0EC81FD8191838083CF
:1042B00083EE91E00E94E414AC81BD8112968D9151
:1042C0009C9113970E94B40BE0913206F091330653
:1042D0008681882309F4EFC2868127819085209307
:1042E00025069093240680933406809195038823B5
:1042F00059F0F09197038AE0F89F900111242F590B
:104300003C4F3D832C8302C01D821C828091980308
:1043100090919903A0919A03B0919B036C017D0148
:1043200088319C4FAF4FBF4F38F0E9EECE0EE3E03F
:10433000DE1EE11CF11C06C0F8EECF0EF3E0DF1E1E
:10434000E11CF11C0E94B3176C157D058E059F05BD
:1043500008F08FC38091930390919403813091056D
:10436000C1F120F0029709F476C09AC02C813D81FA
:104370002115310509F49EC08091AA039091AB03E9
:10438000092E000CAA0BBB0BF901408151816281FF
:104390007381840F951FA61FB71F40919C035091F6
:1043A0009D0360919E0370919F03481759076A0708
:1043B0007B0708F47FC081E090E0909394038093A2
:1043C0009303E091A403F091A503309709F041C055
:1043D0006DC08091AC039091AD03092E000CAA0B27
:1043E000BB0BEC81FD814481558166817781840F0F
:1043F000951FA61FB71F40919C0350919D0360918C
:104400009E0370919F03481759076A077B0708F4BA
:104410004DC01092940310929303809195038230C3
:1044200070F0909197039F5F953018F490939703E5
:1044300002C01092970381508093950304C010929C
:10444000950310929703E091A603F091A70330978C
:1044500039F1099525C08091A0039091A103A09105
:10446000A203B091A3030097A105B10519F14091F2
:104470009C0350919D0360919E0370919F03481788
:1044800059076A077B07B0F01092940310929303C8
:104490001092A0031092A1031092A2031092A30302
:1044A0008091930390919403019721F481E080938C
:1044B000300602C010923006109200010E94710F67
:1044C000EFC88091530281113BCE80913006882342
:1044D00041F187E795E00E944F148091770588238A
:1044E00009F425CE1092240610925B0217C0909119
:1044F0005A029F5F9B8390935A0287E795E00E9440
:104500007614AB81A43008F41BCE85E993E00E94B9
:10451000E41481E08093240680935B0210925A0297
:104520000FCE80915302882389F187E795E00E949E
:104530004F1480917705882329F010922406109259
:104540005B021EC087E795E00E944F1480917705BB
:10455000811118C0B0915A02BF5FBB83B0935A0259
:1045600087E795E00E947614EB81E43058F089E704
:1045700093E00E94E41481E08093240680935B0220
:1045800010925A02809130068111DFCD8091530242
:104590008111DBCD87E795E00E944F14809177056C
:1045A000811105C01092240610925B0220C087E79B
:1045B00095E00E944F1480917705882309F4C5CDBA
:1045C000F0915A02FF5FFB83F0935A0287E795E070
:1045D0000E9463142B81243008F4B7CD81E693E068
:1045E0000E94E41481E08093240680935B02109281
:1045F0005A02ABCD82E895E00E948A0A8091890533
:10460000882359F0809159028F5F80935902863038
:1046100008F4C3CD8EE293E026C082E895E00E94C4
:104620008A0A80918A05882359F0809159028F5F08
:1046300080935902863008F4B0CD8BE093E013C02C
:1046400082E895E00E948A0A80918B05882309F40C
:10465000A4CD809159028F5F80935902863008F46F
:104660009CCD82EE92E00E94E41481E080932506C6
:1046700080935B021092590290CD80915202811179
:1046800091CD82E895E00E948A0A8091890588236D
:1046900029F01092250610925B0240C082E895E056
:1046A0000E948A0A80918805882359F080915902D6
:1046B0008F5F80935902863008F474CD8AEC92E0C3
:1046C00026C082E895E00E948A0A80918A058823A4
:1046D00059F0809159028F5F80935902863008F417
:1046E00061CD87EA92E013C082E895E00E948A0AD1
:1046F00080918B05882309F455CD809159028F5FF5
:1047000080935902863008F44DCD8EE792E00E94E6
:10471000E41481E08093250680935B021092590295
:1047200041CD20913206309133063D832C83D9014F
:104730008D919C918130910509F05BC0AC81BD8168
:1047400012968D919C9113970E94C80A8130910511
:1047500009F4BACDEC81FD8102811381029761F4E5
:1047600081E0878383E090E091838083C8010E9489
:104770001F0B85E091E09CC0C8010E948A0AD80105
:1047800016968C91811124C081E0EC81FD81878394
:1047900083E090E091838083828193810E941F0B4C
:1047A0006EEC70E08EE194E00E94C514AC81BD8196
:1047B00012960D90BC91A02DBD83AC83CD010E94BB
:1047C0008A0AEC81FD81868190E00E9472157CCD81
:1047D00082E090E0AC81BD818D939C9380EC90E071
:1047E0000E94E414EC81FD81828193810E941F0B61
:1047F0006BCD8130910508F083C089E592E00E947D
:10480000E414AC81BD8112968D919C911397892BF4
:1048100009F05BC0EC81FD8184819581892B09F4CD
:1048200064C08FE691E00E948615AC81BD8114962C
:104830000D911C911597C8010E944F14F8018081B9
:104840008111CCC0AC81BD8114968D919C9115973E
:104850000E948E148111C2C0AC81BD8114968D91CD
:104860009C9115970E94761466E970E080E090E0D4
:104870000E947917EC81FD8104811581C8010E9495
:104880004F14D8018C91882309F4DEC0EC81FD819E
:10489000848195810E94631481E0AC81BD8116966C
:1048A0008C93169783E090E08D939C9387E791E03B
:1048B0000E94E41409CD878181110ECD808581117C
:1048C0000BCD90E020E080E00ACD80E691E00E94F0
:1048D0008615EC81FD8102811381D8011C968D9192
:1048E0009C911D97892B59F556C08EE791E00E9447
:1048F000861583E090E0EC81FD8191838083E4CC98
:1049000082309105B1F4AC81BD8112968D919C915C
:1049100013970E94C80A892B09F0D6CC83E090E057
:10492000EC81FD819183808381E086838DE990E035
:10493000BFCF039709F4C8CC8EE890E0B9CFC80187
:104940000E948A0AF80187818111AACCEC81FD813D
:10495000828193810E941F0B81E0AC81BD811796FB
:104960008C93179783E090E08D939C9361EF71E0B7
:104970008EE194E00E94C514EC81FD810280F381F8
:10498000E02DFD83EC83CF010E948A0AAC81BD81BA
:1049900017968C9119CFC8010E941F0B81E0AC8142
:1049A000BD8117968C93179783E090E08D939C932D
:1049B0006AE272E08EE194E00E94C514AC81BD8190
:1049C0001296ED91FC91139781E090E02485358556
:1049D000232B09F4FACE80E090E0F7CE81E0EC8161
:1049E000FD81808783E090E09183808361EB71E0BB
:1049F0008EE194E00E94C514AC81BD8114960D91A6
:104A00001C911597C8010E944F14F801608170E055
:104A100080E090E00E9440156AE971E08EE194E048
:104A20000E94C514AC81BD8114968D919C911597FF
:104A30000E948E1490E00E947215EC81FD818481A9
:104A400095810E94631440CC81E0EC81FD818087D8
:104A500083E090E09183808364E471E08EE194E0F0
:104A60000E94C514AC81BD8114968D919C911597BF
:104A7000E8CF0E94B31760939803709399038093D3
:104A80009A0390939B0380919C0390919D03A09126
:104A90009E03B0919F030196A11DB11D80939C03BD
:104AA00090939D03A0939E03B0939F0353CC86E500
:104AB00094E00E94E41498E088E10FB6F894A89579
:104AC000809360000FBE90936000FFCF84E391E07D
:104AD00090931F0480931E048091FE019091FF012A
:104AE0008E51944071F4E0913104F0913204908140
:104AF000809133048095892380831092FF01109266
:104B0000FE0108958F929F92AF92BF92CF92DF9253
:104B1000EF92FF920F931F93CF93DF9300D0CDB707
:104B2000DEB71092400410923F0488EE93E0A0E0BC
:104B3000B0E08093410490934204A0934304B09367
:104B4000440420E131E030933E0420933D0425EC01
:104B500030E030934A042093490424EC30E0309351
:104B60004C0420934B0420EC30E030934E0420930F
:104B70004D0421EC30E03093500420934F0422EC9C
:104B800030E0309352042093510426EC30E030930F
:104B90005404209353041092560410925704109218
:104BA00058041092590410925703109256038093A0
:104BB000580390935903A0935A03B0935B0382E286
:104BC00091E0909355038093540382E280936003B5
:104BD00086E396E090937F0680937E0682E496E0DB
:104BE00090938106809380068CE796E090938306ED
:104BF0008093820680E496E09093850680938406F5
:104C000010921B0610921C0681E080931D061092E4
:104C10001E0610921F061092200610922106109276
:104C200022061092230610922406109225068FEF7A
:104C300080932606809327068FEF9FEFDC018093F9
:104C4000280690932906A0932A06B0932B0610926B
:104C50002C0610922D0610922E0610922F061092FE
:104C600030061092310610921A061092190688EC3E
:104C700095E0909317068093160684E090E0909359
:104C8000EE058093ED051092F0051092EF051A8263
:104C9000198280E090E00E942E29898381E090E0D3
:104CA0000E942E298A8378ECA72E75E0B72E04E0A7
:104CB00010E0C8010E942E29F50181935F010F5F6A
:104CC0001F4F09321105A9F789819A811816190613
:104CD0008CF4092E000CAA0BBB0B4091E9055091F6
:104CE000EA056091EB057091EC0584179507A6071E
:104CF000B70759F0109218061092E9051092EA05CC
:104D00001092EB051092EC0503C081E08093180629
:104D100080911806811106C08091160690911706A1
:104D20000E947E0336E4A32E31E0B32EB0929505A7
:104D3000A092940548E5C42E4BE1D42E58ECE52E04
:104D4000F12C0FE010E020E931E048E050E069E0AC
:104D500070E084E995E00E940F14B092AF05A09234
:104D6000AE0520E931E048E050E069E070E08EEA0D
:104D700095E00E940F1484E090E090938305809367
:104D8000820585E090E0909385058093840586E018
:104D900090E090938705809386050E94A31482E893
:104DA00095E00E941F0B82E895E00E948A0A10920B
:104DB0008D0510928C0581E090E090938F05809393
:104DC0008E05109290051092910510929205109206
:104DD000930510927705EE24E3940AE010E021E0B9
:104DE0004CE050E061E08BE090E00E94991562E0B9
:104DF00089E00E943D1761E06093730589E090E0CF
:104E000090937205809371058091E6052DE334E05F
:104E10003093E3042093E2048093F0048CE390E069
:104E20009093EF048093EE041092210410922004DA
:104E300088EE93E0A0E0B0E08093220490932304F6
:104E4000A0932404B093250484E391E090931F047D
:104E500080931E041092350410923404109237048B
:104E600010923604109239041092380410923B04C8
:104E700010923A0480913C048E7F8D7F80933C0495
:104E800086958170682787E00E94521661E087E06E
:104E90000E943D17E3EFF5E0E491E0932E04EFED7F
:104EA000F5E0E491F0E0EE0FFF1FE253FA4F859139
:104EB00094919093300480932F0460E086E00E94E8
:104EC0003D1780913C0481FD04C061E086E00E94B2
:104ED000521686E080932A04E2EFF5E0E491E09335
:104EE0002B04EEEDF5E0E491F0E0EE0FFF1FEC5344
:104EF000FA4F8591949190932D0480932C04EEEABF
:104F0000F3E08EE194E00FEF11E088248A94982C6E
:104F10005401A2E3B0E02CE330E040E65AEE60E05A
:104F200070E0008B118A128A138A148A13A384A654
:104F300095A6A6A6B7A615AA14AA17AA16AA1182FC
:104F40001082B383A283358324834683578360878B
:104F5000718710A611A612A613A612A211A210A262
:104F6000178E128613861486158617861686F8966F
:104F70008E179F07B1F61092A0031092A103109212
:104F8000A2031092A3031092A5031092A4031092FF
:104F9000A7031092A6031092A9031092A8031092DF
:104FA000AB031092AA031092AD031092AC031092BF
:104FB0009603109295031092970310929403109207
:104FC00093030E94B317609398037093990380939F
:104FD0009A0390939B0310929C0310929D0310924E
:104FE0009E0310929F031092A0031092A1031092AF
:104FF000A2031092A3030F900F90DF91CF911F9106
:105000000F91FF90EF90DF90CF90BF90AF909F9067
:105010008F9008950E944C2808F481E00895E89448
:1050200009C097FB3EF490958095709561957F4FF0
:105030008F4F9F4F9923A9F0F92F96E9BB2793959E
:10504000F695879577956795B795F111F8CFFAF4AE
:10505000BB0F11F460FF1BC06F5F7F4F8F4F9F4FDF
:1050600016C0882311F096E911C0772321F09EE83D
:10507000872F762F05C0662371F096E8862F70E0A3
:1050800060E02AF09A95660F771F881FDAF7880F7D
:105090009695879597F90895990F0008550FAA0BD3
:1050A000E0E8FEEF16161706E807F907C0F012163B
:1050B0001306E407F50798F0621B730B840B950B3E
:1050C00039F40A2661F0232B242B252B21F4089593
:1050D0000A2609F4A140A6958FEF811D811D089530
:1050E0000E9483280C94F4280E94E62838F00E943D
:1050F000ED2820F0952311F00C94DD280C94E32882
:1051000011240C9428290E94052970F3959FC1F35E
:10511000950F50E0551F629FF001729FBB27F00D65
:10512000B11D639FAA27F00DB11DAA1F649F6627BA
:10513000B00DA11D661F829F2227B00DA11D621F09
:10514000739FB00DA11D621F839FA00D611D221FC3
:10515000749F3327A00D611D231F849F600D211DA7
:10516000822F762F6A2F11249F5750409AF0F1F02A
:1051700088234AF0EE0FFF1FBB1F661F771F881F93
:1051800091505040A9F79E3F510580F00C94DD28C6
:105190000C9428295F3FE4F3983ED4F386957795E5
:1051A0006795B795F795E7959F5FC1F7FE2B880F39
:1051B000911D9695879597F9089597F99F6780E8CF
:1051C00070E060E008959FEF80EC089500240A9459
:1051D0001616170618060906089500240A941216D2
:1051E0001306140605060895092E0394000C11F405
:1051F000882352F0BB0F40F4BF2B11F460FF04C0B2
:105200006F5F7F4F8F4F9F4F089557FD9058440F0A
:10521000551F59F05F3F71F04795880F97FB991F15
:1052200061F09F3F79F087950895121613061406D2
:10523000551FF2CF4695F1DF08C01616170618065F
:10524000991FF1CF86957105610508940895E8943A
:10525000BB2766277727CB0197F90895F999FECFE9
:1052600092BD81BDF89A992780B50895262FF999A6
:10527000FECF1FBA92BD81BD20BD0FB6F894FA9A39
:10528000F99A0FBE01960895052E97FB1EF400941F
:105290000E945B2957FD07D00E949A2907FC03D082
:1052A0004EF40C945B2950954095309521953F4FD5
:1052B0004F4F5F4F089590958095709561957F4F02
:1052C0008F4F9F4F08952F923F924F925F926F9210
:1052D0007F928F929F92AF92BF92CF92DF92EF9286
:1052E000FF920F931F93CF93DF93CDB7DEB7CA1B07
:1052F000DB0B0FB6F894DEBF0FBECDBF09942A8832
:10530000398848885F846E847D848C849B84AA84D9
:10531000B984C884DF80EE80FD800C811B81AA8166
:10532000B981CE0FD11D0FB6F894DEBF0FBECDBF31
:10533000ED010895A1E21A2EAA1BBB1BFD010DC0B1
:10534000AA1FBB1FEE1FFF1FA217B307E407F50735
:1053500020F0A21BB30BE40BF50B661F771F881F11
:10536000991F1A9469F760957095809590959B01A7
:10537000AC01BD01CF0108955058BB27AA270E9458
:10538000D4290C94F4280E94E62838F00E94ED28D5
:1053900020F039F49F3F19F426F40C94E3280EF41E
:1053A000E095E7FB0C94DD28E92F0E94052958F3CE
:1053B000BA17620773078407950720F079F4A6F5FA
:1053C0000C9427290EF4E0950B2EBA2FA02D0B017B
:1053D000B90190010C01CA01A0011124FF27591B3A
:1053E00099F0593F50F4503E68F11A16F040A22F40
:1053F000232F342F4427585FF3CF469537952795B1
:10540000A795F0405395C9F77EF41F16BA0B620BAF
:10541000730B840BBAF09150A1F0FF0FBB1F661FF6
:10542000771F881FC2F70EC0BA0F621F731F841F39
:1054300048F4879577956795B795F7959E3F08F05F
:10544000B0CF9395880F08F09927EE0F9795879521
:1054500008950E943D2A0C94F4280E94ED2858F0EB
:105460000E94E62840F029F45F3F29F00C94DD28E3
:1054700051110C9428290C94E3280E94052968F303
:105480009923B1F3552391F3951B550BBB27AA27FD
:1054900062177307840738F09F5F5F4F220F331F37
:1054A000441FAA1FA9F335D00E2E3AF0E0E832D0FF
:1054B00091505040E695001CCAF72BD0FE2F29D002
:1054C000660F771F881FBB1F261737074807AB07D4
:1054D000B0E809F0BB0B802DBF01FF2793585F4F49
:1054E0003AF09E3F510578F00C94DD280C94282961
:1054F0005F3FE4F3983ED4F3869577956795B7952B
:10550000F7959F5FC9F7880F911D9695879597F935
:105510000895E1E0660F771F881FBB1F62177307AE
:105520008407BA0720F0621B730B840BBA0BEE1FC3
:1055300088F7E09508950E94A22A6894B1110C940E
:10554000282908950E940D2988F09F5798F0B92FB7
:105550009927B751B0F0E1F0660F771F881F991FA8
:105560001AF0BA95C9F714C0B13091F00E942729FA
:10557000B1E008950C942729672F782F8827B85F0A
:1055800039F0B93FCCF3869577956795B395D9F700
:105590003EF490958095709561957F4F8F4F9F4F0A
:1055A00008950E944C2808F48FEF089597FB072E6A
:1055B00016F4009407D077FD09D00E94EA2A07FC70
:1055C00005D03EF4909581959F4F08957095619513
:1055D0007F4F0895AA1BBB1B51E107C0AA1FBB1F29
:1055E000A617B70710F0A61BB70B881F991F5A956F
:1055F000A9F780959095BC01CD010895EE0FFF1F8E
:105600000590F491E02D099481E090E0F8940C94D9
:10561000BC2DAEE0B0E0EFE0FBE20C9471290D8907
:105620001E8986E08C831A8309838FEF9FE79E8310
:105630008D83AE01475E5F4F6F89788DCE010196F5
:105640000E942B2BEF81F885E00FF11F10822E9620
:10565000E4E00C948D29ABE0B0E0E1E3FBE20C94D4
:1056600063296C017B018A01FC0117821682838108
:1056700081FFCCC1CE0101963C01F6019381F70177
:1056800093FD859193FF81917F01882309F4BAC12D
:10569000853239F493FD859193FF81917F018532A5
:1056A00029F4B60190E00E94222DE7CF912C212C05
:1056B000312CFFE1F315D8F08B3279F038F48032D9
:1056C00079F08332A1F4232D20611DC08D3261F069
:1056D000803369F4232D216016C0832D8260382E1B
:1056E000E32DE4603E2E2AC0F32DF8601DC037FC88
:1056F0002DC020ED280F2A3040F08E32B9F436FC50
:1057000081C1232D2064322E19C036FE06C08AE0E6
:10571000989E200D1124922E11C0EAE02E9E200D9D
:105720001124222EF32DF0623F2E08C08C3621F476
:10573000832D8068382E02C0883641F4F70193FD2E
:10574000859193FF81917F018111B3CF982F9F7D28
:105750009554933028F40C5F1F4F9FE399830DC03D
:10576000833631F0833771F0833509F059C021C099
:10577000F801808189830E5F1F4F88248394912CC8
:10578000530113C02801F2E04F0E511CF801A08014
:10579000B18036FE03C0692D70E002C06FEF7FEF6D
:1057A000C5010E94172D4C018201F32DFF773F2E7A
:1057B00016C0280122E0420E511CF801A080B180E1
:1057C00036FE03C0692D70E002C06FEF7FEFC501A8
:1057D0000E940C2D4C01F32DF0683F2E820133FC0A
:1057E0001BC0822D90E088169906B0F4B60180E2C5
:1057F00090E00E94222D2A94F4CFF50137FC859188
:1058000037FE81915F01B60190E00E94222D2110A8
:105810002A9421E0821A91088114910471F7E8C05A
:10582000843611F0893641F5F80137FE07C06081F2
:105830007181828193810C5F1F4F08C060817181EB
:10584000072E000C880B990B0E5F1F4FF32DFF7670
:105850003F2E97FF09C090958095709561957F4F79
:105860008F4F9F4FF0683F2E2AE030E0A3010E9447
:105870005E2D882E861845C0853731F4232D2F7E66
:10588000B22E2AE030E025C0932D997FB92E8F36B5
:10589000C1F018F4883579F0B5C0803719F0883731
:1058A00021F0B0C0E92FE061BE2EB4FE0DC0FB2D8B
:1058B000F460BF2E09C034FE0AC0292F2660B22E24
:1058C00006C028E030E005C020E130E002C020E161
:1058D00032E0F801B7FE07C0608171818281938157
:1058E0000C5F1F4F06C06081718180E090E00E5F09
:1058F0001F4FA3010E945E2D882E8618FB2DFF7777
:105900003F2E36FE0DC0232D2E7FA22E891458F473
:1059100034FE0BC032FC09C0832D8E7EA82E05C03C
:10592000B82CA32C03C0B82C01C0B92CA4FE0FC006
:10593000FE01E80DF11D8081803321F49A2D997EBE
:10594000A92E09C0A2FE06C0B394B39404C08A2D48
:10595000867809F0B394A3FC11C0A0FE06C0B2146F
:1059600088F4280C922C9B180EC0B21460F4B60177
:1059700080E290E00E94222DB394F7CFB21418F485
:105980002B1802C0982C212CA4FE10C0B60180E375
:1059900090E00E94222DA2FE17C0A1FC03C088E760
:1059A00090E002C088E590E0B6010CC08A2D8678B0
:1059B00059F0A1FE02C08BE201C080E2A7FC8DE29B
:1059C000B60190E00E94222D891438F4B60180E3DC
:1059D00090E00E94222D9A94F7CF8A94F301E80D6B
:1059E000F11D8081B60190E00E94222D8110F5CF3B
:1059F000222009F442CEB60180E290E00E94222DDE
:105A00002A94F6CFF6018681978102C08FEF9FEF2F
:105A10002B96E2E10C947F29FC01059061507040C7
:105A20000110D8F7809590958E0F9F1F0895FC0167
:105A30006150704001900110D8F7809590958E0FBD
:105A40009F1F08950F931F93CF93DF93FB01238133
:105A500021FD03C08FEF9FEF2CC022FF16C04681AF
:105A60005781248135814217530744F4A081B181C5
:105A70009D012F5F3F4F318320838C932681378197
:105A80002F5F3F4F3783268314C08B01EC01FB014E
:105A90000084F185E02D0995892BE1F6D801169651
:105AA0008D919C911797019617969C938E931697BC
:105AB000CE01DF91CF911F910F910895FA01AA278E
:105AC000283051F1203181F1E8946F936E7F6E5F41
:105AD0007F4F8F4F9F4FAF4FB1E03ED0B4E03CD0EF
